:1000000012C02CC02BC02AC029C028C027C026C0BF
:1000100025C024C023C022C021C020C01FC01EC0D4
:100020001DC01CC01BC011241FBECFE5D4E0DEBF25
:10003000CDBF10E0A0E6B0E0EEE5F2E002C0059032
:100040000D92A236B107D9F710E0A2E6B0E001C0E8
:100050001D92A636B107E1F702D0FFC0D1CF81B320
:10006000837F81BB81B3806F81BB82B38C6082BB95
:10007000949882B3806E82BB1092650010926400E7
:100080008091600090916100209164003091650042
:100090002817390784F48FE19EE40197F1F700C037
:1000A0000000809164009091650001969093650036
:1000B00080936400E5CF30B33093630020B32470A5
:1000C00020936200387030936300211106C08230A3
:1000D00091051CF09595879504C0311106C0880FD5
:1000E000991F9093610080936000959882B3806D12
:1000F00082BB109265001092640080916000909124
:10010000610020916400309165002817390784F45C
:100110008FE19EE40197F1F700C000008091640038
:100120009091650001969093650080936400E5CFFF
:1001300030B33093630020B3247020936200387092
:1001400030936300211106C0823091051CF0959513
:10015000879504C0311106C0880F991F90936100E4
:1001600080936000969882B3806B82BB109265008A
:100170001092640080916000909161002091640071
:10018000309165002817390784F48FE19EE40197C8
:10019000F1F700C000008091640090916500019625
:1001A0009093650080936400E5CF30B33093630093
:1001B00020B32470209362003870309363002111C3
:1001C00006C0823091051CF09595879504C03111C9
:1001D00006C0880F991F90936100809360009798E4
:1001E00082B3806782BB1092650010926400809198
:1001F00060009091610020916400309165002817A3
:10020000390784F48FE19EE40197F1F700C0000004
:1002100080916400909165000196909365008093B1
:100220006400E5CF30B33093630020B32470209393
:100230006200387030936300211106C0823091054E
:100240001CF09595879504C0311112CF880F991F26
:0E02500090936100809360000BCFF894FFCF75
:02025E0032006C
:00000001FF
