:1000000012C02CC02BC02AC029C028C027C026C0BF
:1000100025C024C023C022C021C020C01FC01EC0D4
:100020001DC01CC01BC011241FBECFE5D4E0DEBF25
:10003000CDBF10E0A0E6B0E0E2EAF0E002C005903B
:100040000D92A236B107D9F710E0A2E6B0E001C0E8
:100050001D92A336B107E1F702D021C0D1CF81B301
:10006000806F81BB8A98929A82B3807F82BB80B373
:1000700084708093620081110EC080916000805175
:10008000809360002FEF89E698E1215080409040F6
:10009000E1F700C00000809160008460E7CFF89431
:0200A000FFCF90
:0200A200F0006C
:00000001FF
