:1000000012C021C020C01FC01EC01DC01CC01BC00C
:100010001AC019C018C017C016C015C014C013C02C
:1000200012C011C010C011241FBECFE5D4E0DEBF46
:10003000CDBF10E0A0E6B0E001C01D92A136B1072F
:10004000E1F727D029C0DCCF1F920F920FB60F9295
:1000500011248F938CB18F5F809360008CB98F9146
:100060000F900FBE0F901F9018951F920F920FB612
:100070000F9211240F900FBE0F901F90189583E3DD
:1000800089B910BC80E28BB98AED8AB986E880BD57
:0C0090000895F5DF7894FFCFF894FFCFBF
:00000001FF
