:1000000012C02CC02BC02AC029C028C027C026C0BF
:1000100025C024C023C023C021C037C01FC01EC0BC
:100020001DC01CC01BC011241FBECFE5D4E0DEBF25
:10003000CDBF10E0A0E6B0E0E6ECF0E002C0059035
:100040000D92A236B107D9F710E0A2E6B0E001C0E8
:100050001D92A336B107E1F72CD033C0D1CF1F9248
:100060000F920FB60F9211248F938CB18F5F8093F4
:1000700062008CB9809160008150809360008F9104
:100080000F900FBE0F901F9018951F920F920FB6F2
:100090000F9211240F900FBE0F901F90189583E3BD
:1000A00089B910BC80E28BB98AED8AB986E880BD37
:1000B0000895F5DF7894809160008111FCCFF89469
:0600C000FACFF894FFCF17
:0200C6000A002E
:00000001FF
