:1000000012C021C020C01FC01EC01DC01CC01BC00C
:100010001AC019C018C017C016C015C014C013C02C
:1000200012C011C010C011241FBECFE5D4E0DEBF46
:10003000CDBF10E0A0E6B0E001C01D92A136B1072F
:10004000E1F70CD01EC0DCCF83E389B910BC80E29D
:100050008BB988E18AB986E880BD0895F5DF809183
:1000600060008CB9809160008F5F809360002FEFFB
:1000700089E698E1215080409040E1F700C00000FF
:06008000EECFF894FFCF63
:00000001FF
