:1000000012C021C020C01FC01EC01DC01CC01BC00C
:100010001AC019C018C017C016C015C014C013C02C
:1000200012C011C010C011241FBECFE5D4E0DEBF46
:10003000CDBF10E0A0E6B0E001C01D92A236B1072E
:10004000E1F70CD070C0DCCF83E389B910BC80E24B
:100050008BB988E18AB986E880BD08958F9AF4DF6C
:1000600080E090E02BB12093610027FF0CC02CB101
:1000700020936000213351F0223321F12333E9F042
:100080002E3209F44FC081309105C9F497982FE7BB
:100090003AE146E0215030404040E1F700C0000026
:1000A000979A8FE79FE422E1815090402040E1F74A
:1000B00000C0000081E090E0D5CF83E090E0823086
:1000C0009105B9F497983FEF44E38CE031504040FC
:1000D0008040E1F700C00000979A9FEF24E33CE0E6
:1000E000915020403040E1F700C0000082E090E0F5
:1000F000B9CF8330910509F0B5CF97984FE72FE43A
:1001000032E1415020403040E1F700C00000979AB2
:100110004FE72AE136E0415020403040E1F700C08F
:0A0120000000A0CF0895F894FFCF6F
:00000001FF
