:1000000012C02CC02BC02AC029C028C027C026C0BF
:1000100025C024C023C022C021C020C01FC01EC0D4
:100020001DC01CC01BC011241FBECFE5D4E0DEBF25
:10003000CDBF10E0A0E6B0E0E6EFF0E002C0059032
:100040000D92A236B107D9F710E0A2E6B0E001C0E8
:100050001D92A336B107E1F721D04BC0D1CF83E386
:1000600089B910BC80E28BB988E18AB986E880BD85
:100070000895009741F0EFECF7E03197F1F700C0F9
:1000800000000197F6CF0895CF93DF93EB01979887
:10009000F0DF979ACE01DF91CF91EBCF8F9ADFDF20
:1000A0008BB18093620087FF0CC08CB1813331F03B
:1000B0008CB1823319F08CB1833319F48CB18093F5
:1000C000600080916000823349F0833361F08133B6
:1000D00039F76EEE72E08AEF90E009C064EF71E0EC
:1000E00084EF91E004C06AEF70E08EEE92E0CCDF26
:0600F000D7CFF894FFCF0A
:0200F6003200D6
:00000001FF
