:1000000012C02CC02BC02AC029C028C027C026C0BF
:1000100025C024C023C022C021C020C01FC01EC0D4
:100020001DC01CC01BC011241FBECFE5D4E0DEBF25
:10003000CDBF10E0A0E6B0E0EEE9F0E002C0059030
:100040000D92A236B107D9F710E0A2E6B0E001C0E8
:100050001D92A336B107E1F702D01FC0D1CF81B303
:10006000806781BB8A98929A82B3807782BB80B383
:100070008470809362009091620080916000911181
:100080000AC08051809360008FE19EE40197F1F7F0
:0E00900000C00000ECCF8468E9CFF894FFCFE9
:02009E00F00070
:00000001FF
