:1000000012C021C020C01FC01EC01DC01CC01BC00C
:100010001AC019C018C017C016C015C014C013C02C
:1000200012C011C010C011241FBECFE5D4E0DEBF46
:10003000CDBF10E0A0E6B0E001C01D92A236B1072E
:10004000E1F70CD02BC0DCCF83E389B910BC80E290
:100050008BB988E18AB986E880BD0895F5DF8BB158
:100060008093610087FFFBCF8CB18F5F809360002E
:100070002FEF89E698E1215080409040E1F700C0E1
:100080000000809160008CB92FEF89E698E1215043
:1000900080409040E1F700C00000E1CFF894FFCF2E
:00000001FF
