:1000000012C021C020C01FC01EC01DC01CC01BC00C
:100010001AC019C018C017C016C015C014C013C02C
:1000200012C011C010C011241FBECFE5D4E0DEBF46
:10003000CDBF10E0A0E6B0E001C01D92A336B1072D
:10004000E1F702D078C0DCCF8A9881B3806F81BBA2
:10005000929A81E090E02091600030916100232B22
:1000600009F061C0949822B3206E22BB2FEF34E3D5
:100070004CE0215030404040E1F700C0000095982E
:1000800022B3206D22BB2FEF34E34CE021503040EF
:100090004040E1F700C00000969822B3206B22BBDD
:1000A0002FEF34E34CE0215030404040E1F700C0F6
:1000B0000000979822B3206722BB2FEF34E34CE077
:1000C000215030404040E1F700C0000020B32470D0
:1000D000209362002111BFCF909361008093600054
:1000E000BACF22B32F7022BB2FEF39E648E121505F
:1000F00030404040E1F700C0000022B3206F22BB37
:100100002FEF39E648E1215030404040E1F700C090
:10011000000020B3247020936200211104C01092CB
:1001200061001092600020916000309161002130E8
:0A0130003105B9F290CFF894FFCF2B
:00000001FF
